:1000000014C1000040C100003EC100003CC100001E
:100010003AC1000038C1000036C1000034C1000000
:1000200032C1000030C100002EC100002CC1000010
:100030002AC1000028C1000026C1000024C1000020
:1000400022C1000020C100001EC100001CC1000030
:100050001AC1000018C1000016C1000014C500003C
:1000600012C10000DAC40000AFC400000CC10000DF
:100070000AC1000008C1000006C1000004C1000060
:1000800002C1000000C10000FEC00000FCC0000072
:10009000FAC00000F8C00000F6C00000F4C0000084
:1000A000F2C00000F0C00000EEC00000ECC0000094
:1000B000EAC00000E8C00000E6C00000E4C00000A4
:1000C000E2C00000E0C00000DEC00000DCC00000B4
:1000D000DAC00000D8C00000D6C00000D4C00000C4
:1000E000D2C0000099029C028B028F029502D302BB
:1000F000A002A402AA02AE02B202B802BC02C0026E
:10010000D302C602CA02CE0200002100240027004A
:100110002A002D0030003300010100000401070116
:100120000A0100002200250028002B002E003100CB
:10013000340002010000050108010B01000020004D
:100140002300260029002C002F00320000010000AF
:10015000030106010901050505050705080808084A
:10016000020202020A0A080804040404010101014F
:10017000010101010303030303030303040707074A
:100180000C0C0C0C0C0C0C0C0202020206060606EF
:10019000060606060B0B0B0B0B0B0B0B01021020BC
:1001A00020080810204010204080020102010804AD
:1001B0000201010204081020408080402010080441
:1001C000020180040201804020100804020108049A
:1001D00002010102040810204080010204081020DE
:1001E000408000000A0B02090C0D0E0807030401F1
:1001F00000000000000000000000000000000000FF
:1002000000000000000000000000000000001211CB
:1002100010000000000000000000000000000000CE
:100220000000000000000000B40611241FBECFEF44
:10023000D1E2DEBFCDBF00E00CBF12E0A0E0B2E033
:10024000EEEDFDE000E00BBF02C007900D92A63579
:10025000B107D9F722E0A6E5B2E001C01D92AC3F9C
:10026000B207E1F711E0C5E1D1E000E005C0219758
:100270000109802FFE01A5D5C431D10780E0080710
:10028000B1F74BD4AAC5BCCECF92DF92EF92FF92CA
:100290000F931F93CF93DF936C017A018B01C0E022
:1002A000D0E0CE15DF0581F0D8016D918D01D6012A
:1002B000ED91FC910190F081E02DC6011995892BFB
:1002C00011F02196EECF7E01C701DF91CF911F91F2
:1002D0000F91FF90EF90DF90CF900895089580E008
:1002E00090E00895FC01538D448D252F30E0842F3C
:1002F00090E0821B930B541710F0CF96089501974E
:100300000895FC01918D828D981761F0828DDF0137
:10031000A80FB11D5D968C91928D9F5F9F73928FF8
:1003200090E008958FEF9FEF0895FC01918D828DED
:10033000981731F0828DE80FF11D858D90E00895BA
:100340008FEF9FEF0895FC01918D228D892F90E012
:10035000805C9F4F821B91098F73992708958FE5C9
:1003600092E0F1DF21E0892B09F420E0822F08954B
:10037000FC01848DDF01A80FB11DA35ABF4F2C9142
:10038000848D90E001968F739927848FA689B78911
:100390002C93A089B1898C91837080648C93938D08
:1003A000848D981306C00288F389E02D80818F7DAB
:1003B00080830895EF92FF920F931F93CF93DF9363
:1003C000EC0181E0888F9B8D8C8D981305C0E889A6
:1003D000F989808185FD25C0F62E0B8D10E00F5F19
:1003E0001F4F0F731127E02E8C8DE8120BC00FB634
:1003F00007FCFACFE889F989808185FFF5CFCE0126
:10040000B7DFF2CF8B8DFE01E80FF11DE35AFF4FEE
:10041000F0829FB7F8940B8FEA89FB898081806214
:100420000AC09FB7F894EE89FF896083E889F9894B
:1004300080818370806480839FBF81E090E0DF9142
:10044000CF911F910F91FF90EF900895CF93DF937D
:10045000EC01888D8823C1F0EA89FB89808185FDC4
:1004600005C0A889B9898C9186FD0EC00FB607FC1E
:10047000F5CF808185FFF2CFA889B9898C9185FF5E
:10048000EDCFCE0175DFE8CFDF91CF91089580E009
:1004900090E0892B19F063DF811125C080E090E0A6
:1004A000892B41F080E090E0892B21F00E94000030
:1004B00081111CC080E090E0892B41F080E090E049
:1004C000892B21F00E940000811113C080E090E090
:1004D000892BA1F080E090E0892B81F00E94000040
:1004E00081110AC008950E940000D8CF0E94000028
:1004F000E1CF0E940000EACF0C940000089590E044
:10050000FC013197E231F10508F04DC08827EE5823
:10051000FF4F8F4F56C4809180008F7703C080912A
:1005200080008F7D80938000089580918000877F78
:10053000F9CF84B58F7702C084B58F7D84BD0895CF
:100540008091B0008F7703C08091B0008F7D809341
:10055000B0000895809190008F7707C0809190003F
:100560008F7D03C080919000877F809390000895D5
:100570008091A0008F7707C08091A0008F7D03C07D
:100580008091A000877F8093A00008958091200132
:100590008F7707C0809120018F7D03C0809120015B
:1005A000877F809320010895CF93DF93282F30E039
:1005B000F901EE51FE4F8491F901E456FE4FD491BA
:1005C000F901EA5AFE4FC491CC2389F0811197DFDB
:1005D000EC2FF0E0EE0FFF1FE45CFE4FA591B4910D
:1005E000EC91ED2381E090E021F480E002C080E016
:1005F00090E0DF91CF9108951F93CF93DF93282F41
:1006000030E0F901EE51FE4F8491F901E456FE4FBE
:10061000D491F901EA5AFE4FC491CC23B9F0162FB8
:1006200081116DDFEC2FF0E0EE0FFF1FEE5DFE4F4E
:10063000A591B4919FB7F894111104C08C91D095F5
:10064000D82302C0EC91DE2BDC939FBFDF91CF91CA
:100650001F910895CF93DF9390E0FC01E456FE4F85
:100660002491FC01EA5AFE4F8491882361F190E0C5
:10067000880F991FFC01E85FFE4FC591D491FC01E2
:10068000EE5DFE4FA591B491611109C09FB7F8943A
:100690008881209582238883EC912E230BC06230C1
:1006A00061F49FB7F8948881322F30958323888333
:1006B000EC912E2B2C939FBF06C08FB7F894E88146
:1006C0002E2B28838FBFDF91CF9108953FB7F894E9
:1006D00080915B0290915C02A0915D02B0915E02FC
:1006E00026B5A89B05C02F3F19F00196A11DB11D8D
:1006F0003FBFBA2FA92F982F8827820F911DA11DC8
:10070000B11DBC01CD0142E0660F771F881F991F04
:100710004A95D1F708958F929F92AF92BF92CF9250
:10072000DF92EF92FF926B017C01D0DF4B015C0105
:10073000C114D104E104F104E9F0C8DFDC01CB010C
:1007400088199909AA09BB09883E9340A105B105FA
:1007500078F321E0C21AD108E108F10888EE880E8A
:1007600083E0981EA11CB11CC114D104E104F10462
:1007700021F7DECFFF90EF90DF90CF90BF90AF904A
:100780009F908F90089568EE73E080E090E0C3DF63
:1007900061E087E031DF60E177E280E090E0BBDF9D
:1007A00060E087E029DF61E083E026DF68EE73E048
:1007B00080E090E0B0DF60E083E01EDF61E085E094
:1007C0001BDF60E177E280E090E0A5CF61E085E0AB
:1007D00013DF60E177E280E090E09DDF60E085E09C
:1007E0000BCF8F929F92AF92BF92CF92DF92EF92F8
:1007F000FF92CF93DF934A015B01682F87E2FCDE13
:10080000C12CD12C7601CBE8D1E0C814D904EA047C
:10081000FB0491F061E083E2EFDECE010197F1F796
:1008200060E083E2E9DECE010197F1F78FEFC81AAD
:10083000D80AE80AF80AE9CFDF91CF91FF90EF904C
:10084000DF90CF90BF90AF909F908F9008958AE0F7
:10085000ABDE019739F440E253E060E070E080E005
:10086000C0DFF5CF40E85EE360E070E081E0B9CF43
:100870008F929F92AF92BF92CF92DF92EF92FF92B0
:100880000F931F93CF93DF934A015B01682F8BE196
:10089000B3DEC12CD12C760107E310E0C3ECD0E02D
:1008A000C814D904EA04FB0491F061E087E1A4DEF6
:1008B000C8010197F1F760E087E19EDECE01019764
:1008C000F1F78FEFC81AD80AE80AF80AE9CFDF91E2
:1008D000CF911F910F91FF90EF90DF90CF90BF903D
:1008E000AF909F908F90089540E856E264E070E0EA
:1008F00081E0BEDF61E087E07FDE60E177E280E0FB
:1009000090E009DF60E087E077DE61E083E074DE9D
:1009100068E873E180E090E0FEDE60E083E06CDE9A
:1009200061E085E069DE60E177E280E090E0F3DE9F
:1009300060E085E061DE61E083E05EDE68EE73E04A
:1009400080E090E0E8DE60E083E056DE40E856E2DA
:1009500064E070E080E08CCFCF93DF93009771F07C
:10096000FC0101900020E9F73197AF01481B590BBA
:10097000BC018FE592E088DCEC0102C0C0E0D0E071
:1009800042E050E062E172E08FE592E07DDC8C0FA6
:100990009D1FDF91CF9108958CE006DE019739F419
:1009A00040E253E060E070E080E062DFF5CF85E197
:1009B00092E0D2DF40EE5EE260E070E081E058DF7E
:1009C00087E292E0C9CF05D21F920F920FB60F9225
:1009D00011240BB60F922F933F934F935F936F9316
:1009E0007F938F939F93AF93BF93EF93FF938FE585
:1009F00092E0BEDCFF91EF91BF91AF919F918F91FB
:100A00007F916F915F914F913F912F910F900BBE0E
:100A10000F900FBE0F901F9018951F920F920FB658
:100A20000F9211240BB60F922F938F939F93EF93F6
:100A3000FF93E0916F02F09170028081E091750266
:100A4000F091760282FD12C09081809178028F5FD2
:100A50008F7320917902821751F0E0917802F0E0D3
:100A6000E15AFD4F958F8093780201C08081FF91FC
:100A7000EF919F918F912F910F900BBE0F900FBE12
:100A80000F901F9018951F920F920FB60F9211247E
:100A90002F933F938F939F93AF93BF938091570270
:100AA00090915802A0915902B0915A023091560289
:100AB00023E0230F2D3720F40196A11DB11D05C0A1
:100AC00026E8230F0296A11DB11D209356028093A4
:100AD000570290935802A0935902B0935A02809102
:100AE0005B0290915C02A0915D02B0915E02019662
:100AF000A11DB11D80935B0290935C02A0935D02E7
:100B0000B0935E02BF91AF919F918F913F912F91D2
:100B10000F900FBE0F901F901895789484B5826047
:100B200084BD84B5816084BD85B5826085BD85B591
:100B3000816085BD80916E00816080936E0010920F
:100B4000810080918100826080938100809181008A
:100B5000816080938100809180008160809380001B
:100B60008091B10084608093B1008091B000816079
:100B70008093B00080919100826080939100809179
:100B800091008160809391008091900081608093BA
:100B900090008091A10082608093A1008091A100CB
:100BA00081608093A1008091A00081608093A0006B
:100BB00080912101826080932101809121018160D7
:100BC0008093210180912001816080932001809198
:100BD0007A00846080937A0080917A0082608093AA
:100BE0007A0080917A00816080937A0080917A0007
:100BF000806880937A001092C100E0916F02F091BA
:100C0000700282E08083E0916B02F0916C021082AE
:100C1000E0916D02F0916E028FEC8083109277026A
:100C2000E0917302F091740286E08083E09171029A
:100C3000F0917202808180618083E0917102F09175
:100C40007202808188608083E0917102F09172026B
:100C5000808180688083E0917102F09172028081CE
:100C60008F7D808362E08FE2F5DC62E083E3F2DC7B
:100C700061E087E1EFDC61E08BE1ECDC61E08FE1DA
:100C8000E9DC61E083E2E6DC61E087E2E3DC61E08D
:100C90008BE2E0DC61E087E0DDDC61E085E0DADC6E
:100CA00062E08CE0D7DC62E08AE0D4DC60E08FE1D7
:100CB000A3DC60E08BE2A0DC61E083E0CBDC83E3DB
:100CC00073DC8C018FE270DCEC0140E856E264E0FA
:100CD00070E080E0CDDD60E177E280E090E01BDD58
:100CE00040E45AE660E070E081E0C2DD012B39F5B6
:100CF0006DDDADDD51DE47DDF7DD40E850E760E05A
:100D000070E080E06EDD3FDDEFDD40E850E760E061
:100D100070E081E066DD40E850E760E070E081E08F
:100D2000A7DD40E850E760E070E080E05ADD2BDDB1
:100D3000DBDD61E08BE260DC61E08FE15DDCCD2B2F
:100D400089F485DD29DE42DD40E458E360E070E0AF
:100D500081E047DD40E458E360E070E081E088DD59
:100D600012DDC2DD94DBABCFEFE5F2E0138212823D
:100D700088EE93E0A0E0B0E084839583A683B783F8
:100D800084E092E09183808385EC90E0958784876E
:100D900084EC90E09787868780EC90E0918B808B45
:100DA00081EC90E0938B828B82EC90E0958B848B2E
:100DB00086EC90E0978B868B118E128E138E148E9C
:100DC0000895EE0FFF1F881F8BBF0790F691E02D4F
:0E0DD000199481E090E0F89400C0F894FFCFF1
:100DDE0000000000DA01440172012602A301810124
:100DEE0095010D0A004C696D6974207377697463FF
:100DFE0068206869742100486F6D696E6720636FA3
:100E0E006D706C6574652E204D6F746F7258206115
:100E1E0074207265666572656E636520706F7369A6
:060E2E0074696F6E2E00D6
:00000001FF
